:060000000200430203456B
:03000B000202F1FD
:030013000202FDE9
:03001B00020309D4
:03002300020315C0
:03002B00020321AC
:0300330002032D98
:03003B0002033984
:03009C0002003E21
:03003E000204FBBE
:10009F00120C3CAE82AF83120C3CAC82AD83120CBF
:1000AF003CAA82AB83120C3385824F8C4B8D4C8ACA
:1000BF004D8B4E8E828F8312089E900E5075F0805E
:1000CF00120C72020CE3120C3CAE82AF83120C3C8A
:1000DF00858221858322120C3C8582238583247897
:1000EF00007900C3E89521E995225018E82EFAE926
:1000FF003FFB120C33AD828A828B83EDF008B80080
:10010F00E20980DF85210B85220C750DFF750EFF2F
:10011F008E828F83120DCCAE82AF83EEB52306EFA6
:10012F00B52402802B900E5375F080120C72750A55
:10013F0000852382852483120CEF900E6E75F0805C
:10014F00120C72750A008E828F83120CEF020CE371
:10015F00900E5075F080120C72020CE3120C3CAE34
:10016F0082AF838E258F26120C3C85822985832AA8
:10017F00120C33E582FB24DF5009900E7D75F08061
:10018F00020C727A007D008B047F00C3EA9CED9F06
:10019F005011EA242BF9120C33E582F70ABA00E763
:1001AF000D80E4E4FDFEF527F528C3E5279529E545
:1001BF0028952A502DC3ED9CEE9F40047D007E00B4
:1001CF00E5272525F582E5283526F583ED242BF93E
:1001DF00E7FBF00527E4B5270205280DBD00CB0E80
:1001EF0080C8900E5075F080120C72020CE3120C46
:1001FF003CAE82AF83120C3CAC82AD837A007B00A5
:10020F00C3EA9CEB9D5040EA540F60028013120C1E
:10021F00E38E828F83750A00120CEF758220120C09
:10022F00648E828F83E0F9A3AE82AF838900790059
:10023F00750A0188828983120CEF758220120C6473
:10024F000ABA00BC0B80B9120CE3900E5075F08007
:10025F00120C72020CE3120C3CAE82AF83120C3CF8
:10026F00AC82AD837A007B00C3EA9CEB9D5041EAE0
:10027F00540F60028013120CE38E828F83750A0075
:10028F00120CEF758220120C648E828F83E493F927
:10029F00A3AE82AF8389007900750A0188828983B2
:1002AF00120CEF758220120C640ABA00BB0B80B8D7
:1002BF00120CE3900E5075F080120C72020CE312C8
:1002CF000C3CAE82AF83900E5075F080120C721200
:1002DF000CE3C007C0068E828F83120041D006D078
:1002EF00072290200BE493FFBF020302200B902004
:1002FF0013E493FFBF020302201390201BE493FF2C
:10030F00BF020302201B902023E493FFBF020302CE
:10031F00202390202BE493FFBF020302202B902079
:10032F0033E493FFBF020302203390203BE493FF9B
:10033F00BF020302203B902000E493FFBF02031291
:10034F00200012064DAF827E008E82120637900E6D
:10035F009375F080120C728E82120D81120C641242
:10036F000CE3C007C006120788D006D0070EBE02E6
:10037F000040D6900EA275F080120C72C0071206C4
:10038F00791206EFD0078F82120637900E5075F054
:10039F0080120C72020CE3120C33120642900E50B4
:1003AF0075F080120C72020CE37F008F057E0075D2
:1003BF000A018D828E83120CEF758209120C64EF85
:1003CF0075F012A42400F582741F35F0F583E0FE5A
:1003DF00600ABE01028014BE0227801A900EB37508
:1003EF00F080120C72120CE30204D4900EBE75F062
:1003FF0080120C72801A900EC375F080120C7280EE
:10040F000F900EC875F080120C72120CE30204D418
:10041F00758209120C64EF75F012A4FDAEF08D0316
:10042F00741F2EFC8B828C83A3E0FC7B00750A016A
:10043F008C828B83120CEF758209120C648D0374FE
:10044F001F2EFC8B828C83A3A3E0FBA3E0FC750A19
:10045F00008B828C83120CEF758209120C648D0352
:10046F00741F2EFC8B828C83A3A3A3A3E0FBA3E0BA
:10047F00FC750A008B828C83120CEF758209120CAB
:10048F00648D03741F2EFC74062BF582E43CF583F8
:10049F00E0FBA3E0FC750A008B828C83120CEF75D6
:1004AF008209120C64741F2EFE74082DFDE43EFEAB
:1004BF007C0075090A8D828E838CF0C007120CC1E7
:1004CF00D007120CE30FBF100050030203BA900EB7
:1004DF005075F080120C72020CE3750B00750C2036
:1004EF00750D01901F0075F000020D4712063212B4
:1004FF0004E9120C24D2A8D2AFC295900ED775F092
:10050F0080120C72120C33AF82BFAAF8120C33AFE9
:10051F0082BF55F0120C33E582FF24F3500302061D
:10052F0026EF240A83F582EF241183F583E47326E3
:10053F000814585E646A70767CED1A20060606056C
:10054F000505050505050506061200D5020513125A
:10055F00016B0205131201FD02051312026502055C
:10056F00131202CE02051312009F020513120C3351
:10057F00E582FF30E721900EE475F080120C727562
:10058F008200120642120CE3900E5075F080120C8E
:10059F0072120CE3020513758201C0071206429016
:1005AF000EF275F080120C7212064DD007120D81EB
:1005BF00120C64120CE3900EFD75F080120C728F0A
:1005CF0082120D81120C64120CE38F821206379087
:1005DF000E5075F080120C72120CE3020513120C00
:1005EF0033900F0875F080120C7212064D120D81A8
:1005FF00120C64120CE3020513900ED775F08012E3
:10060F000C720205131203510205131203A6020501
:10061F00131203B8020513900F1775F080120C72A6
:03062F00020513AE
:100E50004F6B00436865636B73756D206572726FCD
:100E6000722C2072656365697665643A20002C20D7
:100E700063616C63756C617465643A2000427566E9
:100E80006665722073697A65206578636565646557
:100E9000640A00436865636B696E6720706167650B
:100EA00020005852414D20636865636B20646F6E6B
:100EB000650A00454D50545920534C4F5400434F40
:100EC0004445004441544100554E444546494E4531
:100ED000442054595045004D4353353120626F61D1
:100EE00072640A005852414D2064697361626C65F6
:100EF00064004F6C6420706167653A20004E65772E
:100F000020706167653A200043757272656E7420C7
:100F1000706167653A2000434D44206572726F72BC
:020F20000A00C5
:10063200D290C29122C007E58224FF9290D0072275
:10064200E582FFB401009200929122A290E433F578
:100652008222AE82AF837C007D00C3EC950BED95C8
:100662000C50138E828F83E50DF0A3AE82AF830C04
:10067200BC00E70D80E42212064DAF8275820012A3
:100682000637750BFF750CFE750D5A900100C007F9
:10069200120654758201120637750BFF750CFE7532
:1006A2000DFF900100120654D00775820012063722
:1006B2007D007E017B007C01EB4C602C8B828C8365
:1006C200E0FABAFF028016900F2275F080120C72C7
:1006D2008D828E83750A00120CEF020CE30BBB00B5
:1006E200010C8B058C0680D08F820206377F00C0FA
:1006F2000712064DAE82758200120637750BFF7522
:100702000CDF750D5A902000C00612065475820146
:10071200120637750BFF750CDF750DA590200012C0
:100722000654D006D0077C007D20EC4D60538C82AD
:100732008D83E493FBBB5A1BEF70187F01900F3E31
:1007420075F080120C728C828D83750A00120CEF88
:10075200120CE38C828D83E493FBBB5A02801BEF65
:1007620060187F00900F6075F080120C728C828D81
:1007720083750A00120CEF120CE30CBC00AC0D8066
:10078200A98E820206377E007F207C007D01EC4D1F
:10079200600D8C828D83E4F0A3AC82AD8380EF7C0C
:1007A200007D017A007B01EA4B602F8A828B83E015
:1007B2006016900F8075F080120C728C828D83759A
:1007C2000A00120CEF020CE38A828B8374FFF0A3FF
:1007D200AA82AB838A048B0580CD7C007D017A00DE
:1007E2007B01EA4B60338A828B83E0F9B9FF028096
:1007F20016900F9E75F080120C728C828D83750A92
:1008020000120CEF020CE38A828B83745AF0A3AAC3
:1008120082AB838A048B0580C97C007D017A007BD0
:1008220001EA4B60338A828B83E0F9B95A0280165F
:10083200900FBC75F080120C728C828D83750A0049
:10084200120CEF020CE38A828B8374A5F0A3AA82B6
:10085200AB838A048B0580C9C007C00612064DE52A
:1008620082D006D0077034FC7D20EC4D602D8C8246
:100872008D83E493FBBBA5028016900FDA75F0809E
:10088200120C728E828F83750A00120CEF020CE337
:100892000CBC00010D8C068D0780CF22858250850D
:1008A2008351E54FC4540FF552740F554FF553AAB7
:1008B20050AB518A5B8B5C854B5F854C60855F5D7D
:1008C20085605E74E02551501CE5527018854B63BB
:1008D200854C64854D65854E668553678550828556
:1008E2005183020AE2E553B5520280030209D1C3E1
:1008F200E54B9550E54C9551505012064D8582546A
:10090200855382120637E4F555F556AD5BAF5C852B
:100912005D61855E62C3E555954DE556954E502461
:100922008D828F83E0FEA3AD82AF83856182856273
:1009320083EEF0A38582618583620555E4B555D5C2
:10094200055680D1855482020637C3E550954BE5A2
:1009520051954C400122C003C00212064D858254BB
:10096200D002D003E54D2AFAE54E3BFBEA24FFF51F
:100972005BEB34FFF55CE54D255FFEE54E3560FF30
:10098200EE24FFF55DEF34FFF55E855382120637E4
:100992007E007F00AB5BAD5C855D61855E62C3EE10
:1009A200954DEF954E50228B828D83E0FA856182C0
:1009B200856283F00EBE00010F1BBBFF011D156196
:1009C20074FFB56102156280D58554820206371222
:1009D200064D858254854D59E54EC4C559C4540F00
:1009E2006559C559540FC5596559C559F55AE4F5A4
:1009F20057F558C3E5579559E558955A506C8552A5
:100A0200821206377A007D00AB5BAC5CEA240FF9F8
:100A12008B828C83E0FFA3AB82AC83A7070ABA0068
:100A2200010DC3EA9410ED940040E18B5B8C5C8570
:100A320053821206377E007F00AD5DAC5EEE240F5E
:100A4200F987038D828C83EBF0A3AD82AC830EBE5B
:100A520000010FC3EE9410EF940040E18D5D8C5EB7
:100A62000557E4B5578D055880898552821206379D
:100A7200740F554DF559755A007E007F00AC5BAD81
:100A82005CC3EE9559EF955A5018EE240FF98C82FB
:100A92008D83E0FBA3AC82AD83A7030EBE00E20F01
:100AA20080DF855382120637740F554DF559755AFA
:100AB200007E007F00AC5DAD5EC3EE9559EF955AA6
:100AC2005018EE240FF987038C828D83EBF0A3ACD0
:100AD20082AD830EBE00E20F80DF855482020637AC
:100AE200AE82AF838E048F058C6B8D6CA863A96474
:100AF200886D896EE5676003020BDFC3E5639EE5DF
:100B0200649F505712064D858268856782120637A8
:100B1200E4F569F56A856B71856C72856D6F856E1A
:100B220070C3E5699565E56A956650298571828588
:100B32007283E493FBA3858271858372856F8285BC
:100B42007083EBF0A385826F8583700569E4B569D4
:100B5200D0056A80CC856882020637C3EE9563EFC2
:100B62009564400122C005C004C001C00012064DB8
:100B7200858268D000D001D004D005E5652CFCE563
:100B8200663DFDEC24FFF56BED34FFF56CE5652861
:100B9200F8E56639F9E824FFF56DE934FFF56E856D
:100BA20067821206377E007F00AC6BAD6CAA6DAB1C
:100BB2006EC3EE9565EF9566501D8C828D83E4932E
:100BC200F98A828B83F00EBE00010F1CBCFF011D4F
:100BD2001ABAFF011B80DA85688202063712064DB7
:100BE2008582688567821206377E007F00AC6BAD16
:100BF2006CAA6DAB6EC3EE9565EF9566501E8C8246
:100C02008D83E493F9A3AC82AD838A828B83E9F06E
:100C1200A3AA82AB830EBE00DC0F80D98568820254
:020C2200063793
:100F22005852414D3A20466F756E64206469666678
:100F32006572656E63652061743A200058524F4DA8
:100F42003A20466F756E6420636F6D6D6F6E20720E
:100F52006F6D2073746172742061743A200058526C
:100F62004F4D3A20466F756E6420636F6D6D6F6EE4
:100F720020726F6D20656E642061743A20005852B1
:100F8200414D3A2046696C6C696E67207A65726FD2
:100F9200206572726F722061743A20005852414D7E
:100FA2003A2046696C6C696E67206F6E65732065C6
:100FB20072726F722061743A20005852414D3A2089
:100FC20046696C6C696E67203078354120657272B3
:100FD2006F722061743A20005852414D3A20526596
:100FE2006164696E6720636F6465206572726F72F7
:060FF2002061743A2000AA
:100C2400758920758DFF759850D28E75990A22109A
:100C3400980280FB85998222C007C006C005C004C3
:100C4400120C33AF82120C33AE828E05E4FEFCEF3D
:100C54004EF582EC4DF583D004D005D006D00722A2
:100C6400C007AF8210990280FB8F99D00722C0077A
:100C7400C006C005C004AD82AE83AFF08D828E8302
:100C84008FF0120E30FC600C8C82120C640DBD00CF
:100C9400EB0E80E8D004D005D006D00722AD82AE9A
:100CA40083AFF0AC088C031CEB60118D828E838FB4
:100CB400F0120E30FBF582120C6480E922AD82AE94
:100CC40083AFF0AC098D828E838FF0120E30FB60FF
:100CD4000D8C021CEA60078B82120C6480E722757B
:100CE400820D120C6475820A020C64C007C006C02F
:100CF40005C004AE82AF83E50A701AEFC4540FFC3A
:100D04008C82120D81120C648F05740F5DF58212B2
:100D14000D81120C648E04EFC4CCC4540F6CCC54FB
:100D24000FCC6CCC53040F8C82120D81120C6453C3
:100D3400060F8E82120D81120C64D004D005D006E9
:030D4400D00722B3
:06007200E478FFF6D8FD62
:100D4700AC82AD83AE0CAF0DBE0004EF600C1F0F7D
:0F0D5700E50B120D66A3DEFADFF88C828D832286
:100050007900E94400601B7A00900FF8780075A0E1
:1000600001E493F2A308B8000205A0D9F4DAF2750E
:02007000A0FFEF
:100D660020F71130F6138883A88220F509F6A883A8
:100D76007583002280FEF280F5F022C007C006AF20
:100D860082BF0A00920140088F0674372EFE800447
:100D960074302FFE8E82D006D00722AE82AF837CBF
:100DA600007D00C3EC9EED9F501B7AF47B01EA2484
:100DB600FFF8EB34FFF988028903E84970F00CBCB0
:100DC60000E10D80DE22AE82AF83AC0BAD0CEC4DA4
:100DD60060518E828F83E0FBA3AE82AF838B02E4E9
:100DE600620DEA620E7A007B00E50E30E715E50D2E
:100DF600250DF8E50E33F9742168F50D741069F5C3
:100E06000E800BE50EC50D25E0C50D33F50E0ABAAD
:100E160000010BC3EA9408EB940040CD1CBCFF0113
:0A0E26001D80AB850D82850E83222E
:100078007800E84400600A790075A001E4F309D823
:10008800FC7800E84400600C7900900100E4F0A3DB
:04009800D8FCD9FABD
:0F004100E473758172120E4CE582600302003E7B
:100E300020F71430F6148883A88220F507E6A883EB
:100E400075830022E280F7E49322E022758200227B
:00000001FF
